{
  "contractName": "SingleNumRegister",
  "abi": [
    {
      "constant": true,
      "inputs": [
        {
          "internalType": "uint256",
          "name": "",
          "type": "uint256"
        }
      ],
      "name": "storeNumbers",
      "outputs": [
        {
          "internalType": "address",
          "name": "from",
          "type": "address"
        },
        {
          "internalType": "uint256",
          "name": "number",
          "type": "uint256"
        }
      ],
      "payable": false,
      "stateMutability": "view",
      "type": "function"
    },
    {
      "constant": false,
      "inputs": [
        {
          "internalType": "uint256",
          "name": "num",
          "type": "uint256"
        }
      ],
      "name": "set",
      "outputs": [],
      "payable": false,
      "stateMutability": "nonpayable",
      "type": "function"
    },
    {
      "constant": true,
      "inputs": [],
      "name": "get",
      "outputs": [
        {
          "internalType": "uint256",
          "name": "",
          "type": "uint256"
        }
      ],
      "payable": false,
      "stateMutability": "view",
      "type": "function"
    }
  ],
  "bytecode": "0x608060405234801561001057600080fd5b5061026f806100206000396000f3fe608060405234801561001057600080fd5b50600436106100415760003560e01c806360fe47b1146100465780636d4ce63c14610074578063f5bf94cd14610092575b600080fd5b6100726004803603602081101561005c57600080fd5b8101908080359060200190929190505050610107565b005b61007c6101b6565b6040518082815260200191505060405180910390f35b6100be600480360360208110156100a857600080fd5b81019080803590602001909291905050506101e9565b604051808373ffffffffffffffffffffffffffffffffffffffff1673ffffffffffffffffffffffffffffffffffffffff1681526020018281526020019250505060405180910390f35b600060405180604001604052803373ffffffffffffffffffffffffffffffffffffffff168152602001838152509080600181540180825580915050906001820390600052602060002090600202016000909192909190915060008201518160000160006101000a81548173ffffffffffffffffffffffffffffffffffffffff021916908373ffffffffffffffffffffffffffffffffffffffff1602179055506020820151816001015550505050565b6000806001600080549050039050600081815481106101d157fe5b90600052602060002090600202016001015491505090565b600081815481106101f657fe5b90600052602060002090600202016000915090508060000160009054906101000a900473ffffffffffffffffffffffffffffffffffffffff1690806001015490508256fea265627a7a72315820c1fe5fb0528c9d3cb3eb2af8d4fcbc13aff346b825570fea43fb5d20884e9ae364736f6c63430005100032",
  "source": "// SPDX-License-Identifier: UNLICENSED \n\npragma solidity ^0.5.16;\n\ncontract SingleNumRegister {\n    struct StoreNumber {\n        address from;\n        uint256 number;\n    }\n\n    StoreNumber[] public storeNumbers;\n\n    function set(uint256 num) public {\n        storeNumbers.push(StoreNumber(msg.sender, num));\n    }\n\n    function get() public view returns (uint256) {\n        uint256 index = storeNumbers.length - 1;\n        return storeNumbers[index].number;\n    }\n}",
  "sourcePath": "/srv/contracts/SingleNumRegister.sol",
  "compiler": {
    "name": "solc",
    "version": "0.5.16+commit.9c3226ce.Emscripten.clang"
  },
  "schemaVersion": "3.4.14",
  "updatedAt": "2023-06-20T13:13:58.049Z",
  "networkType": "ethereum",
  "devdoc": {
    "methods": {}
  },
  "userdoc": {
    "methods": {}
  }
}