{
  "contractName": "SingleNumRegister",
  "abi": [
    {
      "inputs": [
        {
          "internalType": "uint256",
          "name": "",
          "type": "uint256"
        }
      ],
      "name": "storeNumbers",
      "outputs": [
        {
          "internalType": "address",
          "name": "from",
          "type": "address"
        },
        {
          "internalType": "uint256",
          "name": "number",
          "type": "uint256"
        }
      ],
      "stateMutability": "view",
      "type": "function"
    },
    {
      "inputs": [
        {
          "internalType": "uint256",
          "name": "num",
          "type": "uint256"
        }
      ],
      "name": "set",
      "outputs": [],
      "stateMutability": "nonpayable",
      "type": "function"
    },
    {
      "inputs": [],
      "name": "get",
      "outputs": [
        {
          "internalType": "uint256",
          "name": "",
          "type": "uint256"
        }
      ],
      "stateMutability": "view",
      "type": "function"
    }
  ],
  "bytecode": "0x608060405234801561000f575f80fd5b506103918061001d5f395ff3fe608060405234801561000f575f80fd5b506004361061003f575f3560e01c806360fe47b1146100435780636d4ce63c1461005f578063f5bf94cd1461007d575b5f80fd5b61005d60048036038101906100589190610215565b6100ae565b005b610067610153565b604051610074919061024f565b60405180910390f35b61009760048036038101906100929190610215565b610191565b6040516100a59291906102a7565b60405180910390f35b5f60405180604001604052803373ffffffffffffffffffffffffffffffffffffffff16815260200183815250908060018154018082558091505060019003905f5260205f2090600202015f909190919091505f820151815f015f6101000a81548173ffffffffffffffffffffffffffffffffffffffff021916908373ffffffffffffffffffffffffffffffffffffffff16021790555060208201518160010155505050565b5f8060015f8054905061016691906102fb565b90505f818154811061017b5761017a61032e565b5b905f5260205f2090600202016001015491505090565b5f818154811061019f575f80fd5b905f5260205f2090600202015f91509050805f015f9054906101000a900473ffffffffffffffffffffffffffffffffffffffff16908060010154905082565b5f80fd5b5f819050919050565b6101f4816101e2565b81146101fe575f80fd5b50565b5f8135905061020f816101eb565b92915050565b5f6020828403121561022a576102296101de565b5b5f61023784828501610201565b91505092915050565b610249816101e2565b82525050565b5f6020820190506102625f830184610240565b92915050565b5f73ffffffffffffffffffffffffffffffffffffffff82169050919050565b5f61029182610268565b9050919050565b6102a181610287565b82525050565b5f6040820190506102ba5f830185610298565b6102c76020830184610240565b9392505050565b7f4e487b71000000000000000000000000000000000000000000000000000000005f52601160045260245ffd5b5f610305826101e2565b9150610310836101e2565b9250828203905081811115610328576103276102ce565b5b92915050565b7f4e487b71000000000000000000000000000000000000000000000000000000005f52603260045260245ffdfea26469706673582212205b3caa3b32176cc8daf983562318179b82ad2632f92f89a68f95dc2e87e4c65564736f6c63430008140033",
  "immutableReferences": {},
  "source": "// SPDX-License-Identifier: UNLICENSED \n\npragma solidity ^0.8.20;\n\ncontract SingleNumRegister {\n    struct StoreNumber {\n        address from;\n        uint256 number;\n    }\n\n    StoreNumber[] public storeNumbers;\n\n    function set(uint256 num) public {\n        storeNumbers.push(StoreNumber(msg.sender, num));\n    }\n\n    function get() public view returns (uint256) {\n        uint256 index = storeNumbers.length - 1;\n        return storeNumbers[index].number;\n    }\n}",
  "sourcePath": "/srv/contracts/SingleNumRegister.sol",
  "compiler": {
    "name": "solc",
    "version": "0.8.20+commit.a1b79de6.Emscripten.clang"
  },
  "schemaVersion": "3.4.14",
  "updatedAt": "2023-06-15T11:48:26.718Z",
  "devdoc": {
    "kind": "dev",
    "methods": {},
    "version": 1
  },
  "userdoc": {
    "kind": "user",
    "methods": {},
    "version": 1
  }
}